{
	"LotteryContract.sol": {
		"LotteryContract": {
			"abi": [
				{
					"inputs": [],
					"stateMutability": "nonpayable",
					"type": "constructor"
				},
				{
					"inputs": [],
					"name": "getBalance",
					"outputs": [
						{
							"internalType": "uint256",
							"name": "",
							"type": "uint256"
						}
					],
					"stateMutability": "view",
					"type": "function"
				},
				{
					"inputs": [],
					"name": "getRandom",
					"outputs": [
						{
							"internalType": "uint256",
							"name": "",
							"type": "uint256"
						}
					],
					"stateMutability": "view",
					"type": "function"
				},
				{
					"inputs": [],
					"name": "manager",
					"outputs": [
						{
							"internalType": "address",
							"name": "",
							"type": "address"
						}
					],
					"stateMutability": "view",
					"type": "function"
				},
				{
					"inputs": [
						{
							"internalType": "uint256",
							"name": "",
							"type": "uint256"
						}
					],
					"name": "participents",
					"outputs": [
						{
							"internalType": "address payable",
							"name": "",
							"type": "address"
						}
					],
					"stateMutability": "view",
					"type": "function"
				},
				{
					"inputs": [],
					"name": "pickWinner",
					"outputs": [],
					"stateMutability": "nonpayable",
					"type": "function"
				},
				{
					"inputs": [],
					"name": "winner",
					"outputs": [
						{
							"internalType": "address payable",
							"name": "",
							"type": "address"
						}
					],
					"stateMutability": "view",
					"type": "function"
				},
				{
					"stateMutability": "payable",
					"type": "receive"
				}
			],
			"devdoc": {
				"kind": "dev",
				"methods": {},
				"version": 1
			},
			"evm": {
				"assembly": "    /* \"LotteryContract.sol\":277:1442  contract LotteryContract{... */\n  mstore(0x40, 0x80)\n    /* \"LotteryContract.sol\":496:587  constructor(){... */\n  callvalue\n  dup1\n  iszero\n  tag_1\n  jumpi\n  0x00\n  dup1\n  revert\ntag_1:\n  pop\n    /* \"LotteryContract.sol\":527:537  msg.sender */\n  caller\n    /* \"LotteryContract.sol\":519:526  manager */\n  0x00\n  dup1\n    /* \"LotteryContract.sol\":519:537  manager=msg.sender */\n  0x0100\n  exp\n  dup2\n  sload\n  dup2\n  0xffffffffffffffffffffffffffffffffffffffff\n  mul\n  not\n  and\n  swap1\n  dup4\n  0xffffffffffffffffffffffffffffffffffffffff\n  and\n  mul\n  or\n  swap1\n  sstore\n  pop\n    /* \"LotteryContract.sol\":277:1442  contract LotteryContract{... */\n  dataSize(sub_0)\n  dup1\n  dataOffset(sub_0)\n  0x00\n  codecopy\n  0x00\n  return\nstop\n\nsub_0: assembly {\n        /* \"LotteryContract.sol\":277:1442  contract LotteryContract{... */\n      mstore(0x40, 0x80)\n      jumpi(tag_1, lt(calldatasize, 0x04))\n      shr(0xe0, calldataload(0x00))\n      dup1\n      0x12065fe0\n      eq\n      tag_3\n      jumpi\n      dup1\n      0x3bfcd7c5\n      eq\n      tag_4\n      jumpi\n      dup1\n      0x481c6a75\n      eq\n      tag_5\n      jumpi\n      dup1\n      0x5d495aea\n      eq\n      tag_6\n      jumpi\n      dup1\n      0xaacc5a17\n      eq\n      tag_7\n      jumpi\n      dup1\n      0xdfbf53ae\n      eq\n      tag_8\n      jumpi\n      jump(tag_2)\n    tag_1:\n      jumpi(tag_2, calldatasize)\n        /* \"LotteryContract.sol\":661:671  0.25 ether */\n      0x03782dace9d90000\n        /* \"LotteryContract.sol\":650:659  msg.value */\n      callvalue\n        /* \"LotteryContract.sol\":650:671  msg.value==0.25 ether */\n      eq\n        /* \"LotteryContract.sol\":642:705  require(msg.value==0.25 ether,\"must be 1 ehter to participate\") */\n      tag_11\n      jumpi\n      mload(0x40)\n      0x08c379a000000000000000000000000000000000000000000000000000000000\n      dup2\n      mstore\n      0x04\n      add\n      tag_12\n      swap1\n      tag_13\n      jump\t// in\n    tag_12:\n      mload(0x40)\n      dup1\n      swap2\n      sub\n      swap1\n      revert\n    tag_11:\n        /* \"LotteryContract.sol\":714:726  participents */\n      0x01\n        /* \"LotteryContract.sol\":741:751  msg.sender */\n      caller\n        /* \"LotteryContract.sol\":714:753  participents.push(payable (msg.sender)) */\n      swap1\n      dup1\n      0x01\n      dup2\n      sload\n      add\n      dup1\n      dup3\n      sstore\n      dup1\n      swap2\n      pop\n      pop\n      0x01\n      swap1\n      sub\n      swap1\n      0x00\n      mstore\n      keccak256(0x00, 0x20)\n      add\n      0x00\n      swap1\n      swap2\n      swap1\n      swap2\n      swap1\n      swap2\n      0x0100\n      exp\n      dup2\n      sload\n      dup2\n      0xffffffffffffffffffffffffffffffffffffffff\n      mul\n      not\n      and\n      swap1\n      dup4\n      0xffffffffffffffffffffffffffffffffffffffff\n      and\n      mul\n      or\n      swap1\n      sstore\n      stop\n        /* \"LotteryContract.sol\":277:1442  contract LotteryContract{... */\n    tag_2:\n      0x00\n      dup1\n      revert\n        /* \"LotteryContract.sol\":766:921  function getBalance() public view returns (uint){... */\n    tag_3:\n      callvalue\n      dup1\n      iszero\n      tag_15\n      jumpi\n      0x00\n      dup1\n      revert\n    tag_15:\n      pop\n      tag_16\n      tag_17\n      jump\t// in\n    tag_16:\n      mload(0x40)\n      tag_18\n      swap2\n      swap1\n      tag_19\n      jump\t// in\n    tag_18:\n      mload(0x40)\n      dup1\n      swap2\n      sub\n      swap1\n      return\n        /* \"LotteryContract.sol\":361:400  address payable [] public  participents */\n    tag_4:\n      callvalue\n      dup1\n      iszero\n      tag_20\n      jumpi\n      0x00\n      dup1\n      revert\n    tag_20:\n      pop\n      tag_21\n      0x04\n      dup1\n      calldatasize\n      sub\n      dup2\n      add\n      swap1\n      tag_22\n      swap2\n      swap1\n      tag_23\n      jump\t// in\n    tag_22:\n      tag_24\n      jump\t// in\n    tag_21:\n      mload(0x40)\n      tag_25\n      swap2\n      swap1\n      tag_26\n      jump\t// in\n    tag_25:\n      mload(0x40)\n      dup1\n      swap2\n      sub\n      swap1\n      return\n        /* \"LotteryContract.sol\":308:330  address public manager */\n    tag_5:\n      callvalue\n      dup1\n      iszero\n      tag_27\n      jumpi\n      0x00\n      dup1\n      revert\n    tag_27:\n      pop\n      tag_28\n      tag_29\n      jump\t// in\n    tag_28:\n      mload(0x40)\n      tag_30\n      swap2\n      swap1\n      tag_31\n      jump\t// in\n    tag_30:\n      mload(0x40)\n      dup1\n      swap2\n      sub\n      swap1\n      return\n        /* \"LotteryContract.sol\":1127:1438  function pickWinner() public {... */\n    tag_6:\n      callvalue\n      dup1\n      iszero\n      tag_32\n      jumpi\n      0x00\n      dup1\n      revert\n    tag_32:\n      pop\n      tag_33\n      tag_34\n      jump\t// in\n    tag_33:\n      stop\n        /* \"LotteryContract.sol\":960:1121  function getRandom() public view returns (uint){... */\n    tag_7:\n      callvalue\n      dup1\n      iszero\n      tag_35\n      jumpi\n      0x00\n      dup1\n      revert\n    tag_35:\n      pop\n      tag_36\n      tag_37\n      jump\t// in\n    tag_36:\n      mload(0x40)\n      tag_38\n      swap2\n      swap1\n      tag_19\n      jump\t// in\n    tag_38:\n      mload(0x40)\n      dup1\n      swap2\n      sub\n      swap1\n      return\n        /* \"LotteryContract.sol\":460:489  address payable public winner */\n    tag_8:\n      callvalue\n      dup1\n      iszero\n      tag_39\n      jumpi\n      0x00\n      dup1\n      revert\n    tag_39:\n      pop\n      tag_40\n      tag_41\n      jump\t// in\n    tag_40:\n      mload(0x40)\n      tag_42\n      swap2\n      swap1\n      tag_26\n      jump\t// in\n    tag_42:\n      mload(0x40)\n      dup1\n      swap2\n      sub\n      swap1\n      return\n        /* \"LotteryContract.sol\":766:921  function getBalance() public view returns (uint){... */\n    tag_17:\n        /* \"LotteryContract.sol\":809:813  uint */\n      0x00\n        /* \"LotteryContract.sol\":844:851  manager */\n      dup1\n      0x00\n      swap1\n      sload\n      swap1\n      0x0100\n      exp\n      swap1\n      div\n      0xffffffffffffffffffffffffffffffffffffffff\n      and\n        /* \"LotteryContract.sol\":832:851  msg.sender==manager */\n      0xffffffffffffffffffffffffffffffffffffffff\n      and\n        /* \"LotteryContract.sol\":832:842  msg.sender */\n      caller\n        /* \"LotteryContract.sol\":832:851  msg.sender==manager */\n      0xffffffffffffffffffffffffffffffffffffffff\n      and\n      eq\n        /* \"LotteryContract.sol\":824:873  require(msg.sender==manager, \"must be a manager\") */\n      tag_44\n      jumpi\n      mload(0x40)\n      0x08c379a000000000000000000000000000000000000000000000000000000000\n      dup2\n      mstore\n      0x04\n      add\n      tag_45\n      swap1\n      tag_46\n      jump\t// in\n    tag_45:\n      mload(0x40)\n      dup1\n      swap2\n      sub\n      swap1\n      revert\n    tag_44:\n        /* \"LotteryContract.sol\":890:913  address  (this).balance */\n      selfbalance\n        /* \"LotteryContract.sol\":883:913  return address  (this).balance */\n      swap1\n      pop\n        /* \"LotteryContract.sol\":766:921  function getBalance() public view returns (uint){... */\n      swap1\n      jump\t// out\n        /* \"LotteryContract.sol\":361:400  address payable [] public  participents */\n    tag_24:\n      0x01\n      dup2\n      dup2\n      sload\n      dup2\n      lt\n      tag_47\n      jumpi\n      0x00\n      dup1\n      revert\n    tag_47:\n      swap1\n      0x00\n      mstore\n      keccak256(0x00, 0x20)\n      add\n      0x00\n      swap2\n      pop\n      sload\n      swap1\n      0x0100\n      exp\n      swap1\n      div\n      0xffffffffffffffffffffffffffffffffffffffff\n      and\n      dup2\n      jump\t// out\n        /* \"LotteryContract.sol\":308:330  address public manager */\n    tag_29:\n      0x00\n      dup1\n      sload\n      swap1\n      0x0100\n      exp\n      swap1\n      div\n      0xffffffffffffffffffffffffffffffffffffffff\n      and\n      dup2\n      jump\t// out\n        /* \"LotteryContract.sol\":1127:1438  function pickWinner() public {... */\n    tag_34:\n        /* \"LotteryContract.sol\":1186:1193  manager */\n      0x00\n      dup1\n      sload\n      swap1\n      0x0100\n      exp\n      swap1\n      div\n      0xffffffffffffffffffffffffffffffffffffffff\n      and\n        /* \"LotteryContract.sol\":1174:1193  msg.sender==manager */\n      0xffffffffffffffffffffffffffffffffffffffff\n      and\n        /* \"LotteryContract.sol\":1174:1184  msg.sender */\n      caller\n        /* \"LotteryContract.sol\":1174:1193  msg.sender==manager */\n      0xffffffffffffffffffffffffffffffffffffffff\n      and\n      eq\n        /* \"LotteryContract.sol\":1166:1194  require(msg.sender==manager) */\n      tag_50\n      jumpi\n      0x00\n      dup1\n      revert\n    tag_50:\n        /* \"LotteryContract.sol\":1233:1234  2 */\n      0x02\n        /* \"LotteryContract.sol\":1212:1224  participents */\n      0x01\n        /* \"LotteryContract.sol\":1212:1231  participents.length */\n      dup1\n      sload\n      swap1\n      pop\n        /* \"LotteryContract.sol\":1212:1234  participents.length>=2 */\n      lt\n      iszero\n        /* \"LotteryContract.sol\":1204:1235  require(participents.length>=2) */\n      tag_51\n      jumpi\n      0x00\n      dup1\n      revert\n    tag_51:\n        /* \"LotteryContract.sol\":1245:1251  uint r */\n      0x00\n        /* \"LotteryContract.sol\":1253:1264  getRandom() */\n      tag_52\n        /* \"LotteryContract.sol\":1253:1262  getRandom */\n      tag_37\n        /* \"LotteryContract.sol\":1253:1264  getRandom() */\n      jump\t// in\n    tag_52:\n        /* \"LotteryContract.sol\":1245:1264  uint r= getRandom() */\n      swap1\n      pop\n        /* \"LotteryContract.sol\":1274:1284  uint index */\n      0x00\n        /* \"LotteryContract.sol\":1287:1299  participents */\n      0x01\n        /* \"LotteryContract.sol\":1287:1306  participents.length */\n      dup1\n      sload\n      swap1\n      pop\n        /* \"LotteryContract.sol\":1285:1286  r */\n      dup3\n        /* \"LotteryContract.sol\":1285:1306  r%participents.length */\n      tag_53\n      swap2\n      swap1\n      tag_54\n      jump\t// in\n    tag_53:\n        /* \"LotteryContract.sol\":1274:1306  uint index=r%participents.length */\n      swap1\n      pop\n        /* \"LotteryContract.sol\":1323:1335  participents */\n      0x01\n        /* \"LotteryContract.sol\":1336:1341  index */\n      dup2\n        /* \"LotteryContract.sol\":1323:1342  participents[index] */\n      dup2\n      sload\n      dup2\n      lt\n      tag_55\n      jumpi\n      tag_56\n      tag_57\n      jump\t// in\n    tag_56:\n    tag_55:\n      swap1\n      0x00\n      mstore\n      keccak256(0x00, 0x20)\n      add\n      0x00\n      swap1\n      sload\n      swap1\n      0x0100\n      exp\n      swap1\n      div\n      0xffffffffffffffffffffffffffffffffffffffff\n      and\n        /* \"LotteryContract.sol\":1316:1322  winner */\n      0x02\n      0x00\n        /* \"LotteryContract.sol\":1316:1342  winner=participents[index] */\n      0x0100\n      exp\n      dup2\n      sload\n      dup2\n      0xffffffffffffffffffffffffffffffffffffffff\n      mul\n      not\n      and\n      swap1\n      dup4\n      0xffffffffffffffffffffffffffffffffffffffff\n      and\n      mul\n      or\n      swap1\n      sstore\n      pop\n        /* \"LotteryContract.sol\":1352:1358  winner */\n      0x02\n      0x00\n      swap1\n      sload\n      swap1\n      0x0100\n      exp\n      swap1\n      div\n      0xffffffffffffffffffffffffffffffffffffffff\n      and\n        /* \"LotteryContract.sol\":1352:1367  winner.transfer */\n      0xffffffffffffffffffffffffffffffffffffffff\n      and\n        /* \"LotteryContract.sol\":1352:1381  winner.transfer(getBalance()) */\n      0x08fc\n        /* \"LotteryContract.sol\":1368:1380  getBalance() */\n      tag_59\n        /* \"LotteryContract.sol\":1368:1378  getBalance */\n      tag_17\n        /* \"LotteryContract.sol\":1368:1380  getBalance() */\n      jump\t// in\n    tag_59:\n        /* \"LotteryContract.sol\":1352:1381  winner.transfer(getBalance()) */\n      swap1\n      dup2\n      iszero\n      mul\n      swap1\n      mload(0x40)\n      0x00\n      mload(0x40)\n      dup1\n      dup4\n      sub\n      dup2\n      dup6\n      dup9\n      dup9\n      call\n      swap4\n      pop\n      pop\n      pop\n      pop\n      iszero\n      dup1\n      iszero\n      tag_61\n      jumpi\n      returndatasize\n      0x00\n      dup1\n      returndatacopy\n      revert(0x00, returndatasize)\n    tag_61:\n      pop\n        /* \"LotteryContract.sol\":1427:1428  0 */\n      0x00\n        /* \"LotteryContract.sol\":1404:1429  new address payable [](0) */\n      0xffffffffffffffff\n      dup2\n      gt\n      iszero\n      tag_62\n      jumpi\n      tag_63\n      tag_64\n      jump\t// in\n    tag_63:\n    tag_62:\n      mload(0x40)\n      swap1\n      dup1\n      dup3\n      mstore\n      dup1\n      0x20\n      mul\n      0x20\n      add\n      dup3\n      add\n      0x40\n      mstore\n      dup1\n      iszero\n      tag_65\n      jumpi\n      dup2\n      0x20\n      add\n      0x20\n      dup3\n      mul\n      dup1\n      calldatasize\n      dup4\n      calldatacopy\n      dup1\n      dup3\n      add\n      swap2\n      pop\n      pop\n      swap1\n      pop\n    tag_65:\n      pop\n        /* \"LotteryContract.sol\":1391:1403  participents */\n      0x01\n        /* \"LotteryContract.sol\":1391:1429  participents=new address payable [](0) */\n      swap1\n      dup1\n      mload\n      swap1\n      0x20\n      add\n      swap1\n      tag_66\n      swap3\n      swap2\n      swap1\n      tag_67\n      jump\t// in\n    tag_66:\n      pop\n        /* \"LotteryContract.sol\":1156:1438  {... */\n      pop\n      pop\n        /* \"LotteryContract.sol\":1127:1438  function pickWinner() public {... */\n      jump\t// out\n        /* \"LotteryContract.sol\":960:1121  function getRandom() public view returns (uint){... */\n    tag_37:\n        /* \"LotteryContract.sol\":1002:1006  uint */\n      0x00\n        /* \"LotteryContract.sol\":1057:1073  block.difficulty */\n      prevrandao\n        /* \"LotteryContract.sol\":1074:1089  block.timestamp */\n      timestamp\n        /* \"LotteryContract.sol\":1090:1102  participents */\n      0x01\n        /* \"LotteryContract.sol\":1090:1109  participents.length */\n      dup1\n      sload\n      swap1\n      pop\n        /* \"LotteryContract.sol\":1040:1110  abi.encodePacked(block.difficulty,block.timestamp,participents.length) */\n      add(0x20, mload(0x40))\n      tag_69\n      swap4\n      swap3\n      swap2\n      swap1\n      tag_70\n      jump\t// in\n    tag_69:\n      mload(0x40)\n      0x20\n      dup2\n      dup4\n      sub\n      sub\n      dup2\n      mstore\n      swap1\n      0x40\n      mstore\n        /* \"LotteryContract.sol\":1029:1111  keccak256( abi.encodePacked(block.difficulty,block.timestamp,participents.length)) */\n      dup1\n      mload\n      swap1\n      0x20\n      add\n      keccak256\n        /* \"LotteryContract.sol\":1024:1112  uint(keccak256( abi.encodePacked(block.difficulty,block.timestamp,participents.length))) */\n      0x00\n      shr\n        /* \"LotteryContract.sol\":1016:1112  return  uint(keccak256( abi.encodePacked(block.difficulty,block.timestamp,participents.length))) */\n      swap1\n      pop\n        /* \"LotteryContract.sol\":960:1121  function getRandom() public view returns (uint){... */\n      swap1\n      jump\t// out\n        /* \"LotteryContract.sol\":460:489  address payable public winner */\n    tag_41:\n      0x02\n      0x00\n      swap1\n      sload\n      swap1\n      0x0100\n      exp\n      swap1\n      div\n      0xffffffffffffffffffffffffffffffffffffffff\n      and\n      dup2\n      jump\t// out\n    tag_67:\n      dup3\n      dup1\n      sload\n      dup3\n      dup3\n      sstore\n      swap1\n      0x00\n      mstore\n      keccak256(0x00, 0x20)\n      swap1\n      dup2\n      add\n      swap3\n      dup3\n      iszero\n      tag_71\n      jumpi\n      swap2\n      0x20\n      mul\n      dup3\n      add\n    tag_72:\n      dup3\n      dup2\n      gt\n      iszero\n      tag_73\n      jumpi\n      dup3\n      mload\n      dup3\n      exp(0x0100, 0x00)\n      dup2\n      sload\n      dup2\n      0xffffffffffffffffffffffffffffffffffffffff\n      mul\n      not\n      and\n      swap1\n      dup4\n      0xffffffffffffffffffffffffffffffffffffffff\n      and\n      mul\n      or\n      swap1\n      sstore\n      pop\n      swap2\n      0x20\n      add\n      swap2\n      swap1\n      0x01\n      add\n      swap1\n      jump(tag_72)\n    tag_73:\n    tag_71:\n      pop\n      swap1\n      pop\n      tag_74\n      swap2\n      swap1\n      tag_75\n      jump\t// in\n    tag_74:\n      pop\n      swap1\n      jump\t// out\n    tag_75:\n    tag_76:\n      dup1\n      dup3\n      gt\n      iszero\n      tag_77\n      jumpi\n      0x00\n      dup2\n      0x00\n      swap1\n      sstore\n      pop\n      0x01\n      add\n      jump(tag_76)\n    tag_77:\n      pop\n      swap1\n      jump\t// out\n        /* \"#utility.yul\":7:176   */\n    tag_78:\n        /* \"#utility.yul\":91:102   */\n      0x00\n        /* \"#utility.yul\":125:131   */\n      dup3\n        /* \"#utility.yul\":120:123   */\n      dup3\n        /* \"#utility.yul\":113:132   */\n      mstore\n        /* \"#utility.yul\":165:169   */\n      0x20\n        /* \"#utility.yul\":160:163   */\n      dup3\n        /* \"#utility.yul\":156:170   */\n      add\n        /* \"#utility.yul\":141:170   */\n      swap1\n      pop\n        /* \"#utility.yul\":7:176   */\n      swap3\n      swap2\n      pop\n      pop\n      jump\t// out\n        /* \"#utility.yul\":182:362   */\n    tag_79:\n        /* \"#utility.yul\":322:354   */\n      0x6d757374206265203120656874657220746f2070617274696369706174650000\n        /* \"#utility.yul\":318:319   */\n      0x00\n        /* \"#utility.yul\":310:316   */\n      dup3\n        /* \"#utility.yul\":306:320   */\n      add\n        /* \"#utility.yul\":299:355   */\n      mstore\n        /* \"#utility.yul\":182:362   */\n      pop\n      jump\t// out\n        /* \"#utility.yul\":368:734   */\n    tag_80:\n        /* \"#utility.yul\":510:513   */\n      0x00\n        /* \"#utility.yul\":531:598   */\n      tag_102\n        /* \"#utility.yul\":595:597   */\n      0x1e\n        /* \"#utility.yul\":590:593   */\n      dup4\n        /* \"#utility.yul\":531:598   */\n      tag_78\n      jump\t// in\n    tag_102:\n        /* \"#utility.yul\":524:598   */\n      swap2\n      pop\n        /* \"#utility.yul\":607:700   */\n      tag_103\n        /* \"#utility.yul\":696:699   */\n      dup3\n        /* \"#utility.yul\":607:700   */\n      tag_79\n      jump\t// in\n    tag_103:\n        /* \"#utility.yul\":725:727   */\n      0x20\n        /* \"#utility.yul\":720:723   */\n      dup3\n        /* \"#utility.yul\":716:728   */\n      add\n        /* \"#utility.yul\":709:728   */\n      swap1\n      pop\n        /* \"#utility.yul\":368:734   */\n      swap2\n      swap1\n      pop\n      jump\t// out\n        /* \"#utility.yul\":740:1159   */\n    tag_13:\n        /* \"#utility.yul\":906:910   */\n      0x00\n        /* \"#utility.yul\":944:946   */\n      0x20\n        /* \"#utility.yul\":933:942   */\n      dup3\n        /* \"#utility.yul\":929:947   */\n      add\n        /* \"#utility.yul\":921:947   */\n      swap1\n      pop\n        /* \"#utility.yul\":993:1002   */\n      dup2\n        /* \"#utility.yul\":987:991   */\n      dup2\n        /* \"#utility.yul\":983:1003   */\n      sub\n        /* \"#utility.yul\":979:980   */\n      0x00\n        /* \"#utility.yul\":968:977   */\n      dup4\n        /* \"#utility.yul\":964:981   */\n      add\n        /* \"#utility.yul\":957:1004   */\n      mstore\n        /* \"#utility.yul\":1021:1152   */\n      tag_105\n        /* \"#utility.yul\":1147:1151   */\n      dup2\n        /* \"#utility.yul\":1021:1152   */\n      tag_80\n      jump\t// in\n    tag_105:\n        /* \"#utility.yul\":1013:1152   */\n      swap1\n      pop\n        /* \"#utility.yul\":740:1159   */\n      swap2\n      swap1\n      pop\n      jump\t// out\n        /* \"#utility.yul\":1165:1242   */\n    tag_81:\n        /* \"#utility.yul\":1202:1209   */\n      0x00\n        /* \"#utility.yul\":1231:1236   */\n      dup2\n        /* \"#utility.yul\":1220:1236   */\n      swap1\n      pop\n        /* \"#utility.yul\":1165:1242   */\n      swap2\n      swap1\n      pop\n      jump\t// out\n        /* \"#utility.yul\":1248:1366   */\n    tag_82:\n        /* \"#utility.yul\":1335:1359   */\n      tag_108\n        /* \"#utility.yul\":1353:1358   */\n      dup2\n        /* \"#utility.yul\":1335:1359   */\n      tag_81\n      jump\t// in\n    tag_108:\n        /* \"#utility.yul\":1330:1333   */\n      dup3\n        /* \"#utility.yul\":1323:1360   */\n      mstore\n        /* \"#utility.yul\":1248:1366   */\n      pop\n      pop\n      jump\t// out\n        /* \"#utility.yul\":1372:1594   */\n    tag_19:\n        /* \"#utility.yul\":1465:1469   */\n      0x00\n        /* \"#utility.yul\":1503:1505   */\n      0x20\n        /* \"#utility.yul\":1492:1501   */\n      dup3\n        /* \"#utility.yul\":1488:1506   */\n      add\n        /* \"#utility.yul\":1480:1506   */\n      swap1\n      pop\n        /* \"#utility.yul\":1516:1587   */\n      tag_110\n        /* \"#utility.yul\":1584:1585   */\n      0x00\n        /* \"#utility.yul\":1573:1582   */\n      dup4\n        /* \"#utility.yul\":1569:1586   */\n      add\n        /* \"#utility.yul\":1560:1566   */\n      dup5\n        /* \"#utility.yul\":1516:1587   */\n      tag_82\n      jump\t// in\n    tag_110:\n        /* \"#utility.yul\":1372:1594   */\n      swap3\n      swap2\n      pop\n      pop\n      jump\t// out\n        /* \"#utility.yul\":1681:1798   */\n    tag_84:\n        /* \"#utility.yul\":1790:1791   */\n      0x00\n        /* \"#utility.yul\":1787:1788   */\n      dup1\n        /* \"#utility.yul\":1780:1792   */\n      revert\n        /* \"#utility.yul\":1927:2049   */\n    tag_86:\n        /* \"#utility.yul\":2000:2024   */\n      tag_115\n        /* \"#utility.yul\":2018:2023   */\n      dup2\n        /* \"#utility.yul\":2000:2024   */\n      tag_81\n      jump\t// in\n    tag_115:\n        /* \"#utility.yul\":1993:1998   */\n      dup2\n        /* \"#utility.yul\":1990:2025   */\n      eq\n        /* \"#utility.yul\":1980:2043   */\n      tag_116\n      jumpi\n        /* \"#utility.yul\":2039:2040   */\n      0x00\n        /* \"#utility.yul\":2036:2037   */\n      dup1\n        /* \"#utility.yul\":2029:2041   */\n      revert\n        /* \"#utility.yul\":1980:2043   */\n    tag_116:\n        /* \"#utility.yul\":1927:2049   */\n      pop\n      jump\t// out\n        /* \"#utility.yul\":2055:2194   */\n    tag_87:\n        /* \"#utility.yul\":2101:2106   */\n      0x00\n        /* \"#utility.yul\":2139:2145   */\n      dup2\n        /* \"#utility.yul\":2126:2146   */\n      calldataload\n        /* \"#utility.yul\":2117:2146   */\n      swap1\n      pop\n        /* \"#utility.yul\":2155:2188   */\n      tag_118\n        /* \"#utility.yul\":2182:2187   */\n      dup2\n        /* \"#utility.yul\":2155:2188   */\n      tag_86\n      jump\t// in\n    tag_118:\n        /* \"#utility.yul\":2055:2194   */\n      swap3\n      swap2\n      pop\n      pop\n      jump\t// out\n        /* \"#utility.yul\":2200:2529   */\n    tag_23:\n        /* \"#utility.yul\":2259:2265   */\n      0x00\n        /* \"#utility.yul\":2308:2310   */\n      0x20\n        /* \"#utility.yul\":2296:2305   */\n      dup3\n        /* \"#utility.yul\":2287:2294   */\n      dup5\n        /* \"#utility.yul\":2283:2306   */\n      sub\n        /* \"#utility.yul\":2279:2311   */\n      slt\n        /* \"#utility.yul\":2276:2395   */\n      iszero\n      tag_120\n      jumpi\n        /* \"#utility.yul\":2314:2393   */\n      tag_121\n      tag_84\n      jump\t// in\n    tag_121:\n        /* \"#utility.yul\":2276:2395   */\n    tag_120:\n        /* \"#utility.yul\":2434:2435   */\n      0x00\n        /* \"#utility.yul\":2459:2512   */\n      tag_122\n        /* \"#utility.yul\":2504:2511   */\n      dup5\n        /* \"#utility.yul\":2495:2501   */\n      dup3\n        /* \"#utility.yul\":2484:2493   */\n      dup6\n        /* \"#utility.yul\":2480:2502   */\n      add\n        /* \"#utility.yul\":2459:2512   */\n      tag_87\n      jump\t// in\n    tag_122:\n        /* \"#utility.yul\":2449:2512   */\n      swap2\n      pop\n        /* \"#utility.yul\":2405:2522   */\n      pop\n        /* \"#utility.yul\":2200:2529   */\n      swap3\n      swap2\n      pop\n      pop\n      jump\t// out\n        /* \"#utility.yul\":2535:2661   */\n    tag_88:\n        /* \"#utility.yul\":2572:2579   */\n      0x00\n        /* \"#utility.yul\":2612:2654   */\n      0xffffffffffffffffffffffffffffffffffffffff\n        /* \"#utility.yul\":2605:2610   */\n      dup3\n        /* \"#utility.yul\":2601:2655   */\n      and\n        /* \"#utility.yul\":2590:2655   */\n      swap1\n      pop\n        /* \"#utility.yul\":2535:2661   */\n      swap2\n      swap1\n      pop\n      jump\t// out\n        /* \"#utility.yul\":2667:2771   */\n    tag_89:\n        /* \"#utility.yul\":2712:2719   */\n      0x00\n        /* \"#utility.yul\":2741:2765   */\n      tag_125\n        /* \"#utility.yul\":2759:2764   */\n      dup3\n        /* \"#utility.yul\":2741:2765   */\n      tag_88\n      jump\t// in\n    tag_125:\n        /* \"#utility.yul\":2730:2765   */\n      swap1\n      pop\n        /* \"#utility.yul\":2667:2771   */\n      swap2\n      swap1\n      pop\n      jump\t// out\n        /* \"#utility.yul\":2777:2919   */\n    tag_90:\n        /* \"#utility.yul\":2880:2912   */\n      tag_127\n        /* \"#utility.yul\":2906:2911   */\n      dup2\n        /* \"#utility.yul\":2880:2912   */\n      tag_89\n      jump\t// in\n    tag_127:\n        /* \"#utility.yul\":2875:2878   */\n      dup3\n        /* \"#utility.yul\":2868:2913   */\n      mstore\n        /* \"#utility.yul\":2777:2919   */\n      pop\n      pop\n      jump\t// out\n        /* \"#utility.yul\":2925:3179   */\n    tag_26:\n        /* \"#utility.yul\":3034:3038   */\n      0x00\n        /* \"#utility.yul\":3072:3074   */\n      0x20\n        /* \"#utility.yul\":3061:3070   */\n      dup3\n        /* \"#utility.yul\":3057:3075   */\n      add\n        /* \"#utility.yul\":3049:3075   */\n      swap1\n      pop\n        /* \"#utility.yul\":3085:3172   */\n      tag_129\n        /* \"#utility.yul\":3169:3170   */\n      0x00\n        /* \"#utility.yul\":3158:3167   */\n      dup4\n        /* \"#utility.yul\":3154:3171   */\n      add\n        /* \"#utility.yul\":3145:3151   */\n      dup5\n        /* \"#utility.yul\":3085:3172   */\n      tag_90\n      jump\t// in\n    tag_129:\n        /* \"#utility.yul\":2925:3179   */\n      swap3\n      swap2\n      pop\n      pop\n      jump\t// out\n        /* \"#utility.yul\":3185:3281   */\n    tag_91:\n        /* \"#utility.yul\":3222:3229   */\n      0x00\n        /* \"#utility.yul\":3251:3275   */\n      tag_131\n        /* \"#utility.yul\":3269:3274   */\n      dup3\n        /* \"#utility.yul\":3251:3275   */\n      tag_88\n      jump\t// in\n    tag_131:\n        /* \"#utility.yul\":3240:3275   */\n      swap1\n      pop\n        /* \"#utility.yul\":3185:3281   */\n      swap2\n      swap1\n      pop\n      jump\t// out\n        /* \"#utility.yul\":3287:3405   */\n    tag_92:\n        /* \"#utility.yul\":3374:3398   */\n      tag_133\n        /* \"#utility.yul\":3392:3397   */\n      dup2\n        /* \"#utility.yul\":3374:3398   */\n      tag_91\n      jump\t// in\n    tag_133:\n        /* \"#utility.yul\":3369:3372   */\n      dup3\n        /* \"#utility.yul\":3362:3399   */\n      mstore\n        /* \"#utility.yul\":3287:3405   */\n      pop\n      pop\n      jump\t// out\n        /* \"#utility.yul\":3411:3633   */\n    tag_31:\n        /* \"#utility.yul\":3504:3508   */\n      0x00\n        /* \"#utility.yul\":3542:3544   */\n      0x20\n        /* \"#utility.yul\":3531:3540   */\n      dup3\n        /* \"#utility.yul\":3527:3545   */\n      add\n        /* \"#utility.yul\":3519:3545   */\n      swap1\n      pop\n        /* \"#utility.yul\":3555:3626   */\n      tag_135\n        /* \"#utility.yul\":3623:3624   */\n      0x00\n        /* \"#utility.yul\":3612:3621   */\n      dup4\n        /* \"#utility.yul\":3608:3625   */\n      add\n        /* \"#utility.yul\":3599:3605   */\n      dup5\n        /* \"#utility.yul\":3555:3626   */\n      tag_92\n      jump\t// in\n    tag_135:\n        /* \"#utility.yul\":3411:3633   */\n      swap3\n      swap2\n      pop\n      pop\n      jump\t// out\n        /* \"#utility.yul\":3639:3806   */\n    tag_93:\n        /* \"#utility.yul\":3779:3798   */\n      0x6d7573742062652061206d616e61676572000000000000000000000000000000\n        /* \"#utility.yul\":3775:3776   */\n      0x00\n        /* \"#utility.yul\":3767:3773   */\n      dup3\n        /* \"#utility.yul\":3763:3777   */\n      add\n        /* \"#utility.yul\":3756:3799   */\n      mstore\n        /* \"#utility.yul\":3639:3806   */\n      pop\n      jump\t// out\n        /* \"#utility.yul\":3812:4178   */\n    tag_94:\n        /* \"#utility.yul\":3954:3957   */\n      0x00\n        /* \"#utility.yul\":3975:4042   */\n      tag_138\n        /* \"#utility.yul\":4039:4041   */\n      0x11\n        /* \"#utility.yul\":4034:4037   */\n      dup4\n        /* \"#utility.yul\":3975:4042   */\n      tag_78\n      jump\t// in\n    tag_138:\n        /* \"#utility.yul\":3968:4042   */\n      swap2\n      pop\n        /* \"#utility.yul\":4051:4144   */\n      tag_139\n        /* \"#utility.yul\":4140:4143   */\n      dup3\n        /* \"#utility.yul\":4051:4144   */\n      tag_93\n      jump\t// in\n    tag_139:\n        /* \"#utility.yul\":4169:4171   */\n      0x20\n        /* \"#utility.yul\":4164:4167   */\n      dup3\n        /* \"#utility.yul\":4160:4172   */\n      add\n        /* \"#utility.yul\":4153:4172   */\n      swap1\n      pop\n        /* \"#utility.yul\":3812:4178   */\n      swap2\n      swap1\n      pop\n      jump\t// out\n        /* \"#utility.yul\":4184:4603   */\n    tag_46:\n        /* \"#utility.yul\":4350:4354   */\n      0x00\n        /* \"#utility.yul\":4388:4390   */\n      0x20\n        /* \"#utility.yul\":4377:4386   */\n      dup3\n        /* \"#utility.yul\":4373:4391   */\n      add\n        /* \"#utility.yul\":4365:4391   */\n      swap1\n      pop\n        /* \"#utility.yul\":4437:4446   */\n      dup2\n        /* \"#utility.yul\":4431:4435   */\n      dup2\n        /* \"#utility.yul\":4427:4447   */\n      sub\n        /* \"#utility.yul\":4423:4424   */\n      0x00\n        /* \"#utility.yul\":4412:4421   */\n      dup4\n        /* \"#utility.yul\":4408:4425   */\n      add\n        /* \"#utility.yul\":4401:4448   */\n      mstore\n        /* \"#utility.yul\":4465:4596   */\n      tag_141\n        /* \"#utility.yul\":4591:4595   */\n      dup2\n        /* \"#utility.yul\":4465:4596   */\n      tag_94\n      jump\t// in\n    tag_141:\n        /* \"#utility.yul\":4457:4596   */\n      swap1\n      pop\n        /* \"#utility.yul\":4184:4603   */\n      swap2\n      swap1\n      pop\n      jump\t// out\n        /* \"#utility.yul\":4609:4789   */\n    tag_95:\n        /* \"#utility.yul\":4657:4734   */\n      0x4e487b7100000000000000000000000000000000000000000000000000000000\n        /* \"#utility.yul\":4654:4655   */\n      0x00\n        /* \"#utility.yul\":4647:4735   */\n      mstore\n        /* \"#utility.yul\":4754:4758   */\n      0x12\n        /* \"#utility.yul\":4751:4752   */\n      0x04\n        /* \"#utility.yul\":4744:4759   */\n      mstore\n        /* \"#utility.yul\":4778:4782   */\n      0x24\n        /* \"#utility.yul\":4775:4776   */\n      0x00\n        /* \"#utility.yul\":4768:4783   */\n      revert\n        /* \"#utility.yul\":4795:4971   */\n    tag_54:\n        /* \"#utility.yul\":4827:4828   */\n      0x00\n        /* \"#utility.yul\":4844:4864   */\n      tag_144\n        /* \"#utility.yul\":4862:4863   */\n      dup3\n        /* \"#utility.yul\":4844:4864   */\n      tag_81\n      jump\t// in\n    tag_144:\n        /* \"#utility.yul\":4839:4864   */\n      swap2\n      pop\n        /* \"#utility.yul\":4878:4898   */\n      tag_145\n        /* \"#utility.yul\":4896:4897   */\n      dup4\n        /* \"#utility.yul\":4878:4898   */\n      tag_81\n      jump\t// in\n    tag_145:\n        /* \"#utility.yul\":4873:4898   */\n      swap3\n      pop\n        /* \"#utility.yul\":4917:4918   */\n      dup3\n        /* \"#utility.yul\":4907:4942   */\n      tag_146\n      jumpi\n        /* \"#utility.yul\":4922:4940   */\n      tag_147\n      tag_95\n      jump\t// in\n    tag_147:\n        /* \"#utility.yul\":4907:4942   */\n    tag_146:\n        /* \"#utility.yul\":4963:4964   */\n      dup3\n        /* \"#utility.yul\":4960:4961   */\n      dup3\n        /* \"#utility.yul\":4956:4965   */\n      mod\n        /* \"#utility.yul\":4951:4965   */\n      swap1\n      pop\n        /* \"#utility.yul\":4795:4971   */\n      swap3\n      swap2\n      pop\n      pop\n      jump\t// out\n        /* \"#utility.yul\":4977:5157   */\n    tag_57:\n        /* \"#utility.yul\":5025:5102   */\n      0x4e487b7100000000000000000000000000000000000000000000000000000000\n        /* \"#utility.yul\":5022:5023   */\n      0x00\n        /* \"#utility.yul\":5015:5103   */\n      mstore\n        /* \"#utility.yul\":5122:5126   */\n      0x32\n        /* \"#utility.yul\":5119:5120   */\n      0x04\n        /* \"#utility.yul\":5112:5127   */\n      mstore\n        /* \"#utility.yul\":5146:5150   */\n      0x24\n        /* \"#utility.yul\":5143:5144   */\n      0x00\n        /* \"#utility.yul\":5136:5151   */\n      revert\n        /* \"#utility.yul\":5163:5343   */\n    tag_64:\n        /* \"#utility.yul\":5211:5288   */\n      0x4e487b7100000000000000000000000000000000000000000000000000000000\n        /* \"#utility.yul\":5208:5209   */\n      0x00\n        /* \"#utility.yul\":5201:5289   */\n      mstore\n        /* \"#utility.yul\":5308:5312   */\n      0x41\n        /* \"#utility.yul\":5305:5306   */\n      0x04\n        /* \"#utility.yul\":5298:5313   */\n      mstore\n        /* \"#utility.yul\":5332:5336   */\n      0x24\n        /* \"#utility.yul\":5329:5330   */\n      0x00\n        /* \"#utility.yul\":5322:5337   */\n      revert\n        /* \"#utility.yul\":5349:5428   */\n    tag_96:\n        /* \"#utility.yul\":5388:5395   */\n      0x00\n        /* \"#utility.yul\":5417:5422   */\n      dup2\n        /* \"#utility.yul\":5406:5422   */\n      swap1\n      pop\n        /* \"#utility.yul\":5349:5428   */\n      swap2\n      swap1\n      pop\n      jump\t// out\n        /* \"#utility.yul\":5434:5591   */\n    tag_97:\n        /* \"#utility.yul\":5539:5584   */\n      tag_152\n        /* \"#utility.yul\":5559:5583   */\n      tag_153\n        /* \"#utility.yul\":5577:5582   */\n      dup3\n        /* \"#utility.yul\":5559:5583   */\n      tag_81\n      jump\t// in\n    tag_153:\n        /* \"#utility.yul\":5539:5584   */\n      tag_96\n      jump\t// in\n    tag_152:\n        /* \"#utility.yul\":5534:5537   */\n      dup3\n        /* \"#utility.yul\":5527:5585   */\n      mstore\n        /* \"#utility.yul\":5434:5591   */\n      pop\n      pop\n      jump\t// out\n        /* \"#utility.yul\":5597:6135   */\n    tag_70:\n        /* \"#utility.yul\":5765:5768   */\n      0x00\n        /* \"#utility.yul\":5780:5855   */\n      tag_155\n        /* \"#utility.yul\":5851:5854   */\n      dup3\n        /* \"#utility.yul\":5842:5848   */\n      dup7\n        /* \"#utility.yul\":5780:5855   */\n      tag_97\n      jump\t// in\n    tag_155:\n        /* \"#utility.yul\":5880:5882   */\n      0x20\n        /* \"#utility.yul\":5875:5878   */\n      dup3\n        /* \"#utility.yul\":5871:5883   */\n      add\n        /* \"#utility.yul\":5864:5883   */\n      swap2\n      pop\n        /* \"#utility.yul\":5893:5968   */\n      tag_156\n        /* \"#utility.yul\":5964:5967   */\n      dup3\n        /* \"#utility.yul\":5955:5961   */\n      dup6\n        /* \"#utility.yul\":5893:5968   */\n      tag_97\n      jump\t// in\n    tag_156:\n        /* \"#utility.yul\":5993:5995   */\n      0x20\n        /* \"#utility.yul\":5988:5991   */\n      dup3\n        /* \"#utility.yul\":5984:5996   */\n      add\n        /* \"#utility.yul\":5977:5996   */\n      swap2\n      pop\n        /* \"#utility.yul\":6006:6081   */\n      tag_157\n        /* \"#utility.yul\":6077:6080   */\n      dup3\n        /* \"#utility.yul\":6068:6074   */\n      dup5\n        /* \"#utility.yul\":6006:6081   */\n      tag_97\n      jump\t// in\n    tag_157:\n        /* \"#utility.yul\":6106:6108   */\n      0x20\n        /* \"#utility.yul\":6101:6104   */\n      dup3\n        /* \"#utility.yul\":6097:6109   */\n      add\n        /* \"#utility.yul\":6090:6109   */\n      swap2\n      pop\n        /* \"#utility.yul\":6126:6129   */\n      dup2\n        /* \"#utility.yul\":6119:6129   */\n      swap1\n      pop\n        /* \"#utility.yul\":5597:6135   */\n      swap5\n      swap4\n      pop\n      pop\n      pop\n      pop\n      jump\t// out\n\n    auxdata: 0xa2646970667358221220f0fa0e2de1c6e9297b44827820fa2d7a4402bd1bf5140251168d9cda78352bec64736f6c63430008120033\n}\n",
				"bytecode": {
					"linkReferences": {},
					"object": "608060405234801561001057600080fd5b50336000806101000a81548173ffffffffffffffffffffffffffffffffffffffff021916908373ffffffffffffffffffffffffffffffffffffffff160217905550610956806100606000396000f3fe6080604052600436106100595760003560e01c806312065fe0146101115780633bfcd7c51461013c578063481c6a75146101795780635d495aea146101a4578063aacc5a17146101bb578063dfbf53ae146101e65761010c565b3661010c576703782dace9d9000034146100a8576040517f08c379a000000000000000000000000000000000000000000000000000000000815260040161009f9061064e565b60405180910390fd5b6001339080600181540180825580915050600190039060005260206000200160009091909190916101000a81548173ffffffffffffffffffffffffffffffffffffffff021916908373ffffffffffffffffffffffffffffffffffffffff1602179055005b600080fd5b34801561011d57600080fd5b50610126610211565b6040516101339190610687565b60405180910390f35b34801561014857600080fd5b50610163600480360381019061015e91906106d3565b6102a8565b6040516101709190610741565b60405180910390f35b34801561018557600080fd5b5061018e6102e7565b60405161019b919061077d565b60405180910390f35b3480156101b057600080fd5b506101b961030b565b005b3480156101c757600080fd5b506101d06104ea565b6040516101dd9190610687565b60405180910390f35b3480156101f257600080fd5b506101fb610524565b6040516102089190610741565b60405180910390f35b60008060009054906101000a900473ffffffffffffffffffffffffffffffffffffffff1673ffffffffffffffffffffffffffffffffffffffff163373ffffffffffffffffffffffffffffffffffffffff16146102a2576040517f08c379a0000000000000000000000000000000000000000000000000000000008152600401610299906107e4565b60405180910390fd5b47905090565b600181815481106102b857600080fd5b906000526020600020016000915054906101000a900473ffffffffffffffffffffffffffffffffffffffff1681565b60008054906101000a900473ffffffffffffffffffffffffffffffffffffffff1681565b60008054906101000a900473ffffffffffffffffffffffffffffffffffffffff1673ffffffffffffffffffffffffffffffffffffffff163373ffffffffffffffffffffffffffffffffffffffff161461036357600080fd5b6002600180549050101561037657600080fd5b60006103806104ea565b90506000600180549050826103959190610833565b9050600181815481106103ab576103aa610864565b5b9060005260206000200160009054906101000a900473ffffffffffffffffffffffffffffffffffffffff16600260006101000a81548173ffffffffffffffffffffffffffffffffffffffff021916908373ffffffffffffffffffffffffffffffffffffffff160217905550600260009054906101000a900473ffffffffffffffffffffffffffffffffffffffff1673ffffffffffffffffffffffffffffffffffffffff166108fc61045a610211565b9081150290604051600060405180830381858888f19350505050158015610485573d6000803e3d6000fd5b50600067ffffffffffffffff8111156104a1576104a0610893565b5b6040519080825280602002602001820160405280156104cf5781602001602082028036833780820191505090505b50600190805190602001906104e592919061054a565b505050565b60004442600180549050604051602001610506939291906108e3565b6040516020818303038152906040528051906020012060001c905090565b600260009054906101000a900473ffffffffffffffffffffffffffffffffffffffff1681565b8280548282559060005260206000209081019282156105c3579160200282015b828111156105c25782518260006101000a81548173ffffffffffffffffffffffffffffffffffffffff021916908373ffffffffffffffffffffffffffffffffffffffff1602179055509160200191906001019061056a565b5b5090506105d091906105d4565b5090565b5b808211156105ed5760008160009055506001016105d5565b5090565b600082825260208201905092915050565b7f6d757374206265203120656874657220746f2070617274696369706174650000600082015250565b6000610638601e836105f1565b915061064382610602565b602082019050919050565b600060208201905081810360008301526106678161062b565b9050919050565b6000819050919050565b6106818161066e565b82525050565b600060208201905061069c6000830184610678565b92915050565b600080fd5b6106b08161066e565b81146106bb57600080fd5b50565b6000813590506106cd816106a7565b92915050565b6000602082840312156106e9576106e86106a2565b5b60006106f7848285016106be565b91505092915050565b600073ffffffffffffffffffffffffffffffffffffffff82169050919050565b600061072b82610700565b9050919050565b61073b81610720565b82525050565b60006020820190506107566000830184610732565b92915050565b600061076782610700565b9050919050565b6107778161075c565b82525050565b6000602082019050610792600083018461076e565b92915050565b7f6d7573742062652061206d616e61676572000000000000000000000000000000600082015250565b60006107ce6011836105f1565b91506107d982610798565b602082019050919050565b600060208201905081810360008301526107fd816107c1565b9050919050565b7f4e487b7100000000000000000000000000000000000000000000000000000000600052601260045260246000fd5b600061083e8261066e565b91506108498361066e565b92508261085957610858610804565b5b828206905092915050565b7f4e487b7100000000000000000000000000000000000000000000000000000000600052603260045260246000fd5b7f4e487b7100000000000000000000000000000000000000000000000000000000600052604160045260246000fd5b6000819050919050565b6108dd6108d88261066e565b6108c2565b82525050565b60006108ef82866108cc565b6020820191506108ff82856108cc565b60208201915061090f82846108cc565b60208201915081905094935050505056fea2646970667358221220f0fa0e2de1c6e9297b44827820fa2d7a4402bd1bf5140251168d9cda78352bec64736f6c63430008120033",
					"opcodes": "PUSH1 0x80 PUSH1 0x40 MSTORE CALLVALUE DUP1 ISZERO PUSH2 0x10 JUMPI PUSH1 0x0 DUP1 REVERT JUMPDEST POP CALLER PUSH1 0x0 DUP1 PUSH2 0x100 EXP DUP2 SLOAD DUP2 PUSH20 0xFFFFFFFFFFFFFFFFFFFFFFFFFFFFFFFFFFFFFFFF MUL NOT AND SWAP1 DUP4 PUSH20 0xFFFFFFFFFFFFFFFFFFFFFFFFFFFFFFFFFFFFFFFF AND MUL OR SWAP1 SSTORE POP PUSH2 0x956 DUP1 PUSH2 0x60 PUSH1 0x0 CODECOPY PUSH1 0x0 RETURN INVALID PUSH1 0x80 PUSH1 0x40 MSTORE PUSH1 0x4 CALLDATASIZE LT PUSH2 0x59 JUMPI PUSH1 0x0 CALLDATALOAD PUSH1 0xE0 SHR DUP1 PUSH4 0x12065FE0 EQ PUSH2 0x111 JUMPI DUP1 PUSH4 0x3BFCD7C5 EQ PUSH2 0x13C JUMPI DUP1 PUSH4 0x481C6A75 EQ PUSH2 0x179 JUMPI DUP1 PUSH4 0x5D495AEA EQ PUSH2 0x1A4 JUMPI DUP1 PUSH4 0xAACC5A17 EQ PUSH2 0x1BB JUMPI DUP1 PUSH4 0xDFBF53AE EQ PUSH2 0x1E6 JUMPI PUSH2 0x10C JUMP JUMPDEST CALLDATASIZE PUSH2 0x10C JUMPI PUSH8 0x3782DACE9D90000 CALLVALUE EQ PUSH2 0xA8 JUMPI PUSH1 0x40 MLOAD PUSH32 0x8C379A000000000000000000000000000000000000000000000000000000000 DUP2 MSTORE PUSH1 0x4 ADD PUSH2 0x9F SWAP1 PUSH2 0x64E JUMP JUMPDEST PUSH1 0x40 MLOAD DUP1 SWAP2 SUB SWAP1 REVERT JUMPDEST PUSH1 0x1 CALLER SWAP1 DUP1 PUSH1 0x1 DUP2 SLOAD ADD DUP1 DUP3 SSTORE DUP1 SWAP2 POP POP PUSH1 0x1 SWAP1 SUB SWAP1 PUSH1 0x0 MSTORE PUSH1 0x20 PUSH1 0x0 KECCAK256 ADD PUSH1 0x0 SWAP1 SWAP2 SWAP1 SWAP2 SWAP1 SWAP2 PUSH2 0x100 EXP DUP2 SLOAD DUP2 PUSH20 0xFFFFFFFFFFFFFFFFFFFFFFFFFFFFFFFFFFFFFFFF MUL NOT AND SWAP1 DUP4 PUSH20 0xFFFFFFFFFFFFFFFFFFFFFFFFFFFFFFFFFFFFFFFF AND MUL OR SWAP1 SSTORE STOP JUMPDEST PUSH1 0x0 DUP1 REVERT JUMPDEST CALLVALUE DUP1 ISZERO PUSH2 0x11D JUMPI PUSH1 0x0 DUP1 REVERT JUMPDEST POP PUSH2 0x126 PUSH2 0x211 JUMP JUMPDEST PUSH1 0x40 MLOAD PUSH2 0x133 SWAP2 SWAP1 PUSH2 0x687 JUMP JUMPDEST PUSH1 0x40 MLOAD DUP1 SWAP2 SUB SWAP1 RETURN JUMPDEST CALLVALUE DUP1 ISZERO PUSH2 0x148 JUMPI PUSH1 0x0 DUP1 REVERT JUMPDEST POP PUSH2 0x163 PUSH1 0x4 DUP1 CALLDATASIZE SUB DUP2 ADD SWAP1 PUSH2 0x15E SWAP2 SWAP1 PUSH2 0x6D3 JUMP JUMPDEST PUSH2 0x2A8 JUMP JUMPDEST PUSH1 0x40 MLOAD PUSH2 0x170 SWAP2 SWAP1 PUSH2 0x741 JUMP JUMPDEST PUSH1 0x40 MLOAD DUP1 SWAP2 SUB SWAP1 RETURN JUMPDEST CALLVALUE DUP1 ISZERO PUSH2 0x185 JUMPI PUSH1 0x0 DUP1 REVERT JUMPDEST POP PUSH2 0x18E PUSH2 0x2E7 JUMP JUMPDEST PUSH1 0x40 MLOAD PUSH2 0x19B SWAP2 SWAP1 PUSH2 0x77D JUMP JUMPDEST PUSH1 0x40 MLOAD DUP1 SWAP2 SUB SWAP1 RETURN JUMPDEST CALLVALUE DUP1 ISZERO PUSH2 0x1B0 JUMPI PUSH1 0x0 DUP1 REVERT JUMPDEST POP PUSH2 0x1B9 PUSH2 0x30B JUMP JUMPDEST STOP JUMPDEST CALLVALUE DUP1 ISZERO PUSH2 0x1C7 JUMPI PUSH1 0x0 DUP1 REVERT JUMPDEST POP PUSH2 0x1D0 PUSH2 0x4EA JUMP JUMPDEST PUSH1 0x40 MLOAD PUSH2 0x1DD SWAP2 SWAP1 PUSH2 0x687 JUMP JUMPDEST PUSH1 0x40 MLOAD DUP1 SWAP2 SUB SWAP1 RETURN JUMPDEST CALLVALUE DUP1 ISZERO PUSH2 0x1F2 JUMPI PUSH1 0x0 DUP1 REVERT JUMPDEST POP PUSH2 0x1FB PUSH2 0x524 JUMP JUMPDEST PUSH1 0x40 MLOAD PUSH2 0x208 SWAP2 SWAP1 PUSH2 0x741 JUMP JUMPDEST PUSH1 0x40 MLOAD DUP1 SWAP2 SUB SWAP1 RETURN JUMPDEST PUSH1 0x0 DUP1 PUSH1 0x0 SWAP1 SLOAD SWAP1 PUSH2 0x100 EXP SWAP1 DIV PUSH20 0xFFFFFFFFFFFFFFFFFFFFFFFFFFFFFFFFFFFFFFFF AND PUSH20 0xFFFFFFFFFFFFFFFFFFFFFFFFFFFFFFFFFFFFFFFF AND CALLER PUSH20 0xFFFFFFFFFFFFFFFFFFFFFFFFFFFFFFFFFFFFFFFF AND EQ PUSH2 0x2A2 JUMPI PUSH1 0x40 MLOAD PUSH32 0x8C379A000000000000000000000000000000000000000000000000000000000 DUP2 MSTORE PUSH1 0x4 ADD PUSH2 0x299 SWAP1 PUSH2 0x7E4 JUMP JUMPDEST PUSH1 0x40 MLOAD DUP1 SWAP2 SUB SWAP1 REVERT JUMPDEST SELFBALANCE SWAP1 POP SWAP1 JUMP JUMPDEST PUSH1 0x1 DUP2 DUP2 SLOAD DUP2 LT PUSH2 0x2B8 JUMPI PUSH1 0x0 DUP1 REVERT JUMPDEST SWAP1 PUSH1 0x0 MSTORE PUSH1 0x20 PUSH1 0x0 KECCAK256 ADD PUSH1 0x0 SWAP2 POP SLOAD SWAP1 PUSH2 0x100 EXP SWAP1 DIV PUSH20 0xFFFFFFFFFFFFFFFFFFFFFFFFFFFFFFFFFFFFFFFF AND DUP2 JUMP JUMPDEST PUSH1 0x0 DUP1 SLOAD SWAP1 PUSH2 0x100 EXP SWAP1 DIV PUSH20 0xFFFFFFFFFFFFFFFFFFFFFFFFFFFFFFFFFFFFFFFF AND DUP2 JUMP JUMPDEST PUSH1 0x0 DUP1 SLOAD SWAP1 PUSH2 0x100 EXP SWAP1 DIV PUSH20 0xFFFFFFFFFFFFFFFFFFFFFFFFFFFFFFFFFFFFFFFF AND PUSH20 0xFFFFFFFFFFFFFFFFFFFFFFFFFFFFFFFFFFFFFFFF AND CALLER PUSH20 0xFFFFFFFFFFFFFFFFFFFFFFFFFFFFFFFFFFFFFFFF AND EQ PUSH2 0x363 JUMPI PUSH1 0x0 DUP1 REVERT JUMPDEST PUSH1 0x2 PUSH1 0x1 DUP1 SLOAD SWAP1 POP LT ISZERO PUSH2 0x376 JUMPI PUSH1 0x0 DUP1 REVERT JUMPDEST PUSH1 0x0 PUSH2 0x380 PUSH2 0x4EA JUMP JUMPDEST SWAP1 POP PUSH1 0x0 PUSH1 0x1 DUP1 SLOAD SWAP1 POP DUP3 PUSH2 0x395 SWAP2 SWAP1 PUSH2 0x833 JUMP JUMPDEST SWAP1 POP PUSH1 0x1 DUP2 DUP2 SLOAD DUP2 LT PUSH2 0x3AB JUMPI PUSH2 0x3AA PUSH2 0x864 JUMP JUMPDEST JUMPDEST SWAP1 PUSH1 0x0 MSTORE PUSH1 0x20 PUSH1 0x0 KECCAK256 ADD PUSH1 0x0 SWAP1 SLOAD SWAP1 PUSH2 0x100 EXP SWAP1 DIV PUSH20 0xFFFFFFFFFFFFFFFFFFFFFFFFFFFFFFFFFFFFFFFF AND PUSH1 0x2 PUSH1 0x0 PUSH2 0x100 EXP DUP2 SLOAD DUP2 PUSH20 0xFFFFFFFFFFFFFFFFFFFFFFFFFFFFFFFFFFFFFFFF MUL NOT AND SWAP1 DUP4 PUSH20 0xFFFFFFFFFFFFFFFFFFFFFFFFFFFFFFFFFFFFFFFF AND MUL OR SWAP1 SSTORE POP PUSH1 0x2 PUSH1 0x0 SWAP1 SLOAD SWAP1 PUSH2 0x100 EXP SWAP1 DIV PUSH20 0xFFFFFFFFFFFFFFFFFFFFFFFFFFFFFFFFFFFFFFFF AND PUSH20 0xFFFFFFFFFFFFFFFFFFFFFFFFFFFFFFFFFFFFFFFF AND PUSH2 0x8FC PUSH2 0x45A PUSH2 0x211 JUMP JUMPDEST SWAP1 DUP2 ISZERO MUL SWAP1 PUSH1 0x40 MLOAD PUSH1 0x0 PUSH1 0x40 MLOAD DUP1 DUP4 SUB DUP2 DUP6 DUP9 DUP9 CALL SWAP4 POP POP POP POP ISZERO DUP1 ISZERO PUSH2 0x485 JUMPI RETURNDATASIZE PUSH1 0x0 DUP1 RETURNDATACOPY RETURNDATASIZE PUSH1 0x0 REVERT JUMPDEST POP PUSH1 0x0 PUSH8 0xFFFFFFFFFFFFFFFF DUP2 GT ISZERO PUSH2 0x4A1 JUMPI PUSH2 0x4A0 PUSH2 0x893 JUMP JUMPDEST JUMPDEST PUSH1 0x40 MLOAD SWAP1 DUP1 DUP3 MSTORE DUP1 PUSH1 0x20 MUL PUSH1 0x20 ADD DUP3 ADD PUSH1 0x40 MSTORE DUP1 ISZERO PUSH2 0x4CF JUMPI DUP2 PUSH1 0x20 ADD PUSH1 0x20 DUP3 MUL DUP1 CALLDATASIZE DUP4 CALLDATACOPY DUP1 DUP3 ADD SWAP2 POP POP SWAP1 POP JUMPDEST POP PUSH1 0x1 SWAP1 DUP1 MLOAD SWAP1 PUSH1 0x20 ADD SWAP1 PUSH2 0x4E5 SWAP3 SWAP2 SWAP1 PUSH2 0x54A JUMP JUMPDEST POP POP POP JUMP JUMPDEST PUSH1 0x0 PREVRANDAO TIMESTAMP PUSH1 0x1 DUP1 SLOAD SWAP1 POP PUSH1 0x40 MLOAD PUSH1 0x20 ADD PUSH2 0x506 SWAP4 SWAP3 SWAP2 SWAP1 PUSH2 0x8E3 JUMP JUMPDEST PUSH1 0x40 MLOAD PUSH1 0x20 DUP2 DUP4 SUB SUB DUP2 MSTORE SWAP1 PUSH1 0x40 MSTORE DUP1 MLOAD SWAP1 PUSH1 0x20 ADD KECCAK256 PUSH1 0x0 SHR SWAP1 POP SWAP1 JUMP JUMPDEST PUSH1 0x2 PUSH1 0x0 SWAP1 SLOAD SWAP1 PUSH2 0x100 EXP SWAP1 DIV PUSH20 0xFFFFFFFFFFFFFFFFFFFFFFFFFFFFFFFFFFFFFFFF AND DUP2 JUMP JUMPDEST DUP3 DUP1 SLOAD DUP3 DUP3 SSTORE SWAP1 PUSH1 0x0 MSTORE PUSH1 0x20 PUSH1 0x0 KECCAK256 SWAP1 DUP2 ADD SWAP3 DUP3 ISZERO PUSH2 0x5C3 JUMPI SWAP2 PUSH1 0x20 MUL DUP3 ADD JUMPDEST DUP3 DUP2 GT ISZERO PUSH2 0x5C2 JUMPI DUP3 MLOAD DUP3 PUSH1 0x0 PUSH2 0x100 EXP DUP2 SLOAD DUP2 PUSH20 0xFFFFFFFFFFFFFFFFFFFFFFFFFFFFFFFFFFFFFFFF MUL NOT AND SWAP1 DUP4 PUSH20 0xFFFFFFFFFFFFFFFFFFFFFFFFFFFFFFFFFFFFFFFF AND MUL OR SWAP1 SSTORE POP SWAP2 PUSH1 0x20 ADD SWAP2 SWAP1 PUSH1 0x1 ADD SWAP1 PUSH2 0x56A JUMP JUMPDEST JUMPDEST POP SWAP1 POP PUSH2 0x5D0 SWAP2 SWAP1 PUSH2 0x5D4 JUMP JUMPDEST POP SWAP1 JUMP JUMPDEST JUMPDEST DUP1 DUP3 GT ISZERO PUSH2 0x5ED JUMPI PUSH1 0x0 DUP2 PUSH1 0x0 SWAP1 SSTORE POP PUSH1 0x1 ADD PUSH2 0x5D5 JUMP JUMPDEST POP SWAP1 JUMP JUMPDEST PUSH1 0x0 DUP3 DUP3 MSTORE PUSH1 0x20 DUP3 ADD SWAP1 POP SWAP3 SWAP2 POP POP JUMP JUMPDEST PUSH32 0x6D757374206265203120656874657220746F2070617274696369706174650000 PUSH1 0x0 DUP3 ADD MSTORE POP JUMP JUMPDEST PUSH1 0x0 PUSH2 0x638 PUSH1 0x1E DUP4 PUSH2 0x5F1 JUMP JUMPDEST SWAP2 POP PUSH2 0x643 DUP3 PUSH2 0x602 JUMP JUMPDEST PUSH1 0x20 DUP3 ADD SWAP1 POP SWAP2 SWAP1 POP JUMP JUMPDEST PUSH1 0x0 PUSH1 0x20 DUP3 ADD SWAP1 POP DUP2 DUP2 SUB PUSH1 0x0 DUP4 ADD MSTORE PUSH2 0x667 DUP2 PUSH2 0x62B JUMP JUMPDEST SWAP1 POP SWAP2 SWAP1 POP JUMP JUMPDEST PUSH1 0x0 DUP2 SWAP1 POP SWAP2 SWAP1 POP JUMP JUMPDEST PUSH2 0x681 DUP2 PUSH2 0x66E JUMP JUMPDEST DUP3 MSTORE POP POP JUMP JUMPDEST PUSH1 0x0 PUSH1 0x20 DUP3 ADD SWAP1 POP PUSH2 0x69C PUSH1 0x0 DUP4 ADD DUP5 PUSH2 0x678 JUMP JUMPDEST SWAP3 SWAP2 POP POP JUMP JUMPDEST PUSH1 0x0 DUP1 REVERT JUMPDEST PUSH2 0x6B0 DUP2 PUSH2 0x66E JUMP JUMPDEST DUP2 EQ PUSH2 0x6BB JUMPI PUSH1 0x0 DUP1 REVERT JUMPDEST POP JUMP JUMPDEST PUSH1 0x0 DUP2 CALLDATALOAD SWAP1 POP PUSH2 0x6CD DUP2 PUSH2 0x6A7 JUMP JUMPDEST SWAP3 SWAP2 POP POP JUMP JUMPDEST PUSH1 0x0 PUSH1 0x20 DUP3 DUP5 SUB SLT ISZERO PUSH2 0x6E9 JUMPI PUSH2 0x6E8 PUSH2 0x6A2 JUMP JUMPDEST JUMPDEST PUSH1 0x0 PUSH2 0x6F7 DUP5 DUP3 DUP6 ADD PUSH2 0x6BE JUMP JUMPDEST SWAP2 POP POP SWAP3 SWAP2 POP POP JUMP JUMPDEST PUSH1 0x0 PUSH20 0xFFFFFFFFFFFFFFFFFFFFFFFFFFFFFFFFFFFFFFFF DUP3 AND SWAP1 POP SWAP2 SWAP1 POP JUMP JUMPDEST PUSH1 0x0 PUSH2 0x72B DUP3 PUSH2 0x700 JUMP JUMPDEST SWAP1 POP SWAP2 SWAP1 POP JUMP JUMPDEST PUSH2 0x73B DUP2 PUSH2 0x720 JUMP JUMPDEST DUP3 MSTORE POP POP JUMP JUMPDEST PUSH1 0x0 PUSH1 0x20 DUP3 ADD SWAP1 POP PUSH2 0x756 PUSH1 0x0 DUP4 ADD DUP5 PUSH2 0x732 JUMP JUMPDEST SWAP3 SWAP2 POP POP JUMP JUMPDEST PUSH1 0x0 PUSH2 0x767 DUP3 PUSH2 0x700 JUMP JUMPDEST SWAP1 POP SWAP2 SWAP1 POP JUMP JUMPDEST PUSH2 0x777 DUP2 PUSH2 0x75C JUMP JUMPDEST DUP3 MSTORE POP POP JUMP JUMPDEST PUSH1 0x0 PUSH1 0x20 DUP3 ADD SWAP1 POP PUSH2 0x792 PUSH1 0x0 DUP4 ADD DUP5 PUSH2 0x76E JUMP JUMPDEST SWAP3 SWAP2 POP POP JUMP JUMPDEST PUSH32 0x6D7573742062652061206D616E61676572000000000000000000000000000000 PUSH1 0x0 DUP3 ADD MSTORE POP JUMP JUMPDEST PUSH1 0x0 PUSH2 0x7CE PUSH1 0x11 DUP4 PUSH2 0x5F1 JUMP JUMPDEST SWAP2 POP PUSH2 0x7D9 DUP3 PUSH2 0x798 JUMP JUMPDEST PUSH1 0x20 DUP3 ADD SWAP1 POP SWAP2 SWAP1 POP JUMP JUMPDEST PUSH1 0x0 PUSH1 0x20 DUP3 ADD SWAP1 POP DUP2 DUP2 SUB PUSH1 0x0 DUP4 ADD MSTORE PUSH2 0x7FD DUP2 PUSH2 0x7C1 JUMP JUMPDEST SWAP1 POP SWAP2 SWAP1 POP JUMP JUMPDEST PUSH32 0x4E487B7100000000000000000000000000000000000000000000000000000000 PUSH1 0x0 MSTORE PUSH1 0x12 PUSH1 0x4 MSTORE PUSH1 0x24 PUSH1 0x0 REVERT JUMPDEST PUSH1 0x0 PUSH2 0x83E DUP3 PUSH2 0x66E JUMP JUMPDEST SWAP2 POP PUSH2 0x849 DUP4 PUSH2 0x66E JUMP JUMPDEST SWAP3 POP DUP3 PUSH2 0x859 JUMPI PUSH2 0x858 PUSH2 0x804 JUMP JUMPDEST JUMPDEST DUP3 DUP3 MOD SWAP1 POP SWAP3 SWAP2 POP POP JUMP JUMPDEST PUSH32 0x4E487B7100000000000000000000000000000000000000000000000000000000 PUSH1 0x0 MSTORE PUSH1 0x32 PUSH1 0x4 MSTORE PUSH1 0x24 PUSH1 0x0 REVERT JUMPDEST PUSH32 0x4E487B7100000000000000000000000000000000000000000000000000000000 PUSH1 0x0 MSTORE PUSH1 0x41 PUSH1 0x4 MSTORE PUSH1 0x24 PUSH1 0x0 REVERT JUMPDEST PUSH1 0x0 DUP2 SWAP1 POP SWAP2 SWAP1 POP JUMP JUMPDEST PUSH2 0x8DD PUSH2 0x8D8 DUP3 PUSH2 0x66E JUMP JUMPDEST PUSH2 0x8C2 JUMP JUMPDEST DUP3 MSTORE POP POP JUMP JUMPDEST PUSH1 0x0 PUSH2 0x8EF DUP3 DUP7 PUSH2 0x8CC JUMP JUMPDEST PUSH1 0x20 DUP3 ADD SWAP2 POP PUSH2 0x8FF DUP3 DUP6 PUSH2 0x8CC JUMP JUMPDEST PUSH1 0x20 DUP3 ADD SWAP2 POP PUSH2 0x90F DUP3 DUP5 PUSH2 0x8CC JUMP JUMPDEST PUSH1 0x20 DUP3 ADD SWAP2 POP DUP2 SWAP1 POP SWAP5 SWAP4 POP POP POP POP JUMP INVALID LOG2 PUSH5 0x6970667358 0x22 SLT KECCAK256 CREATE STATICCALL 0xE 0x2D 0xE1 0xC6 0xE9 0x29 PUSH28 0x44827820FA2D7A4402BD1BF5140251168D9CDA78352BEC64736F6C63 NUMBER STOP ADDMOD SLT STOP CALLER "
				},
				"gasEstimates": {
					"creation": {
						"codeDepositCost": "478000",
						"executionCost": "24777",
						"totalCost": "502777"
					},
					"external": {
						"getBalance()": "2584",
						"getRandom()": "infinite",
						"manager()": "2533",
						"participents(uint256)": "4956",
						"pickWinner()": "infinite",
						"winner()": "2602"
					}
				},
				"methodIdentifiers": {
					"getBalance()": "12065fe0",
					"getRandom()": "aacc5a17",
					"manager()": "481c6a75",
					"participents(uint256)": "3bfcd7c5",
					"pickWinner()": "5d495aea",
					"winner()": "dfbf53ae"
				}
			},
			"storageLayout": {
				"storage": [
					{
						"astId": 3,
						"contract": "LotteryContract.sol:LotteryContract",
						"label": "manager",
						"offset": 0,
						"slot": "0",
						"type": "t_address"
					},
					{
						"astId": 6,
						"contract": "LotteryContract.sol:LotteryContract",
						"label": "participents",
						"offset": 0,
						"slot": "1",
						"type": "t_array(t_address_payable)dyn_storage"
					},
					{
						"astId": 8,
						"contract": "LotteryContract.sol:LotteryContract",
						"label": "winner",
						"offset": 0,
						"slot": "2",
						"type": "t_address_payable"
					}
				],
				"types": {
					"t_address": {
						"encoding": "inplace",
						"label": "address",
						"numberOfBytes": "20"
					},
					"t_address_payable": {
						"encoding": "inplace",
						"label": "address payable",
						"numberOfBytes": "20"
					},
					"t_array(t_address_payable)dyn_storage": {
						"base": "t_address_payable",
						"encoding": "dynamic_array",
						"label": "address payable[]",
						"numberOfBytes": "32"
					}
				}
			},
			"userdoc": {
				"kind": "user",
				"methods": {},
				"version": 1
			}
		}
	}
}